:0400000002001132B7
:03000B00020000F0
:20006A00750900750ED7750FD77510D77511D77512D77513E77514E77515E77516E77517DE
:04008A00E702000E7B
:03000E000200C22B
:20008E0022E582FF6003D29422C29422E582FF6003D29522C29522E582FF6003D29222C28B
:2000AE009222E582FF6003D29322C29322A290E433F5822212000090084975F0801201F0FA
:2000CE0012000075000475820212000090000E75F04012000090001375F0401200001200BB
:2000EE0000E58260F990000A75F04012000090085F75F0801201F0850A82120000900862E5
:20010E0075F0801201F0850B8212000090086275F0801201F0850C8212000090086275F05F
:15012E00801201F0850D8212000090086475F0801201F080A906
:1E0849000D0A3E205258206465766963652072656164790D0A003E200020000D0A0001
:06004000E478FFF6D8FD94
:20001E007900E94400601B7A00900872780175A000E493F2A308B8000205A0D9F4DAF2750E
:02003E00A0FF21
:200046007800E84400600A790175A000E4F309D8FC7800E84400600C7900900001E4F0A3B8
:04006600D8FCD9FAEF
:20014300C01F85811FC082058105810581E51F24FBF8A91F0909E6F70809E6F70809E6F716
:20016300A81F080886820886830886F012080EFAA312080EFBA312080EFF74012AFCE43BA2
:20018300FD8F06A81F080886820886830886F0EC12082EA3ED12082EA3EE12082E8A828BE0
:2001A300838FF0A81F08E612082E851F81D01F2285821C85831D85F01E752E1C752F007554
:2001C3003040851831851932851A33851B349001431202ECAE82AF83AB1CAC1DAD1E8B82CA
:2001E3008C838DF0E412082E8E828F8322C01F85811FE51F24F8FF8F34E51F24FBFF8F2E3B
:20020300752F00753040E51F24F8F886310886320886339001431202ECAE82AF83E51F24A4
:1B022300FBF886030886040886058B828C838DF0E412082E8E828F83D01F2227
:20023E00AF82C024C025C02612024B8007C022C0238F8222158115811581052CE4B52C0228
:20025E00052D22AF8274302FFF24C6500A74072FFF3000034307208F8202023EE582FFC422
:20027E00540FF582C007120261D007740F5FF58202026185823C85273D85283E85293F852C
:20029E002A40AA2B754120EA2AFAE540235401FF8A064EFAE53D253DF53DE53E33F53EE585
:2002BE003F33F53FE54033F540C3EA953C4008EAC3953CFA433D01E54114FF8F4170C88568
:2002DE003D27853E28853F2985402A8A2B22858222858323852E24852F25853026E4F52C1A
:2002FE00F52DAD31AE32AF338D828E838FF012080EFC74012DF531E43EF5328F33ECFF702D
:20031E00030207EFBF250280030207E7C201C202C203C204C205C206C207C2087535007518
:20033E0036007CFFAA31AB32AE338A828B838EF012080EFFA3AA82AB838A318B328E33BFA1
:20035E0025078F8212023E80998F3874D025385026E53824C64020BCFF12E53675F00AA497
:20037E00FD2F24D0F53670C2D20280BEEC75F00AA42F24D0FC80B3BF2E07BCFFAD7C008027
:20039E00A98F05BD6100400CED248540075307DFD2008002C200BF2002806DBF2B028063CF
:2003BE00BF2D028059BF42028063BF43028068BF4403020591BF46030205A7BF4803020323
:2003DE0048BF4903020591BF4A03020348BF4C028040BF4F03020598BF5003020526BF53ED
:2003FE0002805CBF5403020348BF550302059DBF58030205A2BF5A030203480205ABD20132
:20041E00020348D203020348D204020348D206020348D20702034830060CE53414FE8E34B2
:20043E008E0187078011E53424FEFE8E348E018705098706198D078F8212023E0205B4E594
:20045E003424FDFE8E348E01870309870509870619198B278D288E298B828D838EF0C00476
:20047E001207F6AD82AE83D004BCFF028D0420012AC3ED95365024E536C39DF536AE368E7B
:20049E00031EEB6014758220C006C005C00412023ED004D005D00680E68E368C068527829D
:2004BE008528838529F012080EFCFF602F8E041EC374808CF063F08095F050208F82C0061C
:2004DE00C00512023ED005D006AA27AB28AC290ABA00010B8A278B288C2980C12001030273
:2004FE0005B4C3ED953640030205B4E536C39DF536AE368E041EEC70030205B2758220C083
:20051E000612023ED00680EBE53424FDFC8C348C01870209870309870419198A278B288CCF
:20053E0029AC29BC800040047F438014BC600040047F50800BBC400040047F4980027F58AE
:20055E008F82C00712023E75823A12023E75823012023E75827812023ED007BF4902800B2A
:20057E00BF5002800685288212027A85278212027A8023D20575350A801C753508801775C5
:20059E00350A8012753510800DD20880098F8212023E80028E3630085CE53424FCFE8E348C
:2005BE008E0187020987030987040987061919198A278B288C298E2A7527677528087529E6
:2005DE008085273985283A85293B74012539FAE4353AFCAE3B8A278C288E29853982853AA8
:2005FE0083853BF012080EFEFF70030203008F8212023E80CCE535700302030075374730A9
:20061E00062DE53414FC8C348C01E7FA3395E0FBFCFE8A278B288C298E2A200566AA277BED
:20063E00007C007E008A278B288C298E2A8054300721E53424FCFE8E348E01870209870301
:20065E000987040987061919198A278B288C298E2A8030E53424FEFE8E348E0187040987E1
:20067E000619EE3395E0FBFA8C278E288B298A2A200510AA27AB287C007E008A278B288C1E
:20069E00298E2A300522E52A30E71BC3E49527FAE49528FBE49529FCE4952AFE8A278B2827
:2006BE008C298E2A8002C205D209A9377E00752B00853582C006C001120291D001D006205E
:2006DE00090BE52BC4FCE7FB4CF7198002A72B0EB209E52745284529452A70D289378E05D2
:2006FE00E5367003753601200224200121ED04FEAC36C3EE9C5015758220C006C005C00431
:20071E0012023ED004D005D0061C80E68C3630050E75822DC00512023ED00515368023ED78
:20073E00602030030E75822BC00512023ED0051536800F30040C758220C00512023ED005AF
:20075E001536200122AE368E041EC3ED9C502B3002047C3080027C208C82C006C0051202E5
:20077E003ED005D00680E0C3ED95365008E536C39DF536800775360080028E36A9378D06AE
:20079E008E051EED6026B20920090A09E7C4540FFD8D2B80078705740F5DF52B852B82C058
:2007BE0006C001120261D001D00680D4200103020300AE368E051EED7003020300758220AA
:1807DE00C00612023ED00680EB8F8212023E020300852C82852D8322B8
:0B0867003C4E4F20464C4F41543E00D9
:1807F600AA82AB8312080E6003A380F8C3E5829AF582E5839BF5832213
:0D00110075814712082AE582600302000E87
:1C080E0020F71430F6148883A88220F507E6A88375830022E280F7E49322E022F9
:04082A0075820022B1
:1B082E0020F71130F6138883A88220F509F6A8837583002280FEF280F5F022C9
:00000001FF
